:100000000C942A000C9443010C9443010C9443017A
:100010000C9443010C9443010C9443010C94430150
:100020000C9443010C9443010C9443010C94430140
:100030000C9443010C9443010C9443010C94430130
:100040000C9443010C9443010C9443010C94430120
:100050000C94430111241FBECFE5D8E0DEBFCDBF15
:10006000E4E5F0E040E017C0B591A5913591259108
:10007000059107FD0CC095918591EF01F92FE82FAF
:1000800005900D92A217B307D9F7FE0104C01D9287
:10009000A217B307E1F7E435F40731F70E94CC006B
:0800A0000C945200F894FFCF0C
:1000A800452BC9F181309105A9F01CF4892B39F051
:1000B800089582309105C9F0039711F108952AB384
:1000C80081E090E002C0880F991F6A95E2F7822BC1
:1000D8008ABB089527B381E090E002C0880F991F7A
:1000E8006A95E2F7822B87BB089524B381E090E0FC
:1000F80002C0880F991F6A95E2F7822B84BB089586
:1001080021B381E090E002C0880F991F6A95E2F759
:10011800822B81BB089581309105B1F01CF4892BA5
:1001280039F0089582309105D9F0039729F108959F
:100138002AB381E090E002C0880F991F6A95E2F720
:10014800809582238ABB089527B381E090E002C09E
:10015800880F991F6A95E2F78095822387BB0895D7
:1001680024B381E090E002C0880F991F6A95E2F7F6
:100178008095822384BB089521B381E090E002C07A
:10018800880F991F6A95E2F78095822381BB0895AD
:100198000E94360147E050E061E070E081E090E0C5
:1001A8000E94150182E090E00E94FB0065E070E08B
:1001B80088E490E00E942901A998CC9B03C081E0C3
:1001C8000E943E01CD9B03C082E00E943E01CE9B6F
:1001D80003C083E00E943E01A99A2FEF89E698E1C7
:0E01E800215080409040E1F700C00000E5CFBC
:1001F600CF93DF93EC0183B78F7C83BF41E050E060
:1002060063E070E081E090E00E94540083B7C295FD
:10021600D295D07FDC27C07FDC27C82BC3BFDF91F8
:04022600CF910895D7
:10022A0097B1892B87B987B100247695679507948A
:10023A00769567950794762F602D682B67B986B1F6
:08024A00482B46B9379A0895CC
:1002520093B7977B93BF93B7987F93BF93B7892B3D
:0A02620083BF83B7682B63BF0895C4
:10026C0087B3806A87BBA19A8DB181658DB90895DA
:0A027C008FB9779BFECF8FB1089574
:040286000C940000D4
:00000001FF
