:100000000C942D000C940D030C940D030C940D0313
:100010000C940D030C940D030C940D030C940D0320
:100020000C940D030C940D030C940D030C940D0310
:100030000C940D030C940D030C940D030C940D0300
:100040000C940D030C940D030C940D030C940D03F0
:100050000C940D0300600061800011241FBECFE5E9
:10006000D8E0DEBFCDBFE4E5F0E040E017C0B591D9
:10007000A59135912591059107FD0CC0959185912C
:10008000EF01F92FE82F05900D92A217B307D9F7CA
:10009000FE0104C01D92A217B307E1F7E935F4078A
:0E00A00031F70E946A000C945500F894FFCFCF
:1000AE0053544F50004241434B00464F525741521A
:1000BE0044205749544820535045454400464F521A
:0500CE005741524400FF
:1000D400CF93DF93CDB7DEB763970FB6F894DEBF47
:1000E4000FBECDBF0E9409030E94E7020E940102D5
:1000F40065E070E088E490E00E94CD0282E090E048
:100104000E948F020F2EFEEA6F2EF0E07F2EF0E0A9
:100114008F2EF02D0F2EF3EBCF2EF0E0DF2EF0E03C
:10012400EF2EF02D0F2EF8EB2F2EF0E03F2EF0E007
:100134004F2EF02D80E00E94F602809360000E9412
:100144000503809160008130C9F48FEF0E94110390
:100154000E94FB0288E02BEC30E040E0F901DE0174
:100164001196742F0E94DA02CE0101960E94BE02FB
:100174008FE493EC0197F1F700C0000080916000D8
:100184008230B1F48FEF0E9411030E940F0385E0C7
:10019400F301DE011196782D0E94DA02CE01019658
:1001A4000E94BE028FE493EC0197F1F700C00000B7
:1001B400809160008330B1F48FEF0E9411030E949C
:1001C400000385E0F601DE0111967E2D0E94DA021D
:1001D400CE0101960E94BE028FE493EC0197F1F7E1
:1001E40000C0000080916000843008F4A3CF0E9416
:1001F400EF020E9411030E94FB0283E1F101DE0180
:100204001196742D0E94DA02CE0101960E94BE025C
:0E0214008FE493EC0197F1F700C000008BCF50
:10022200452BC9F181309105A9F01CF4892B39F0D5
:10023200089582309105C9F0039711F108952AB308
:1002420081E090E002C0880F991F6A95E2F7822B45
:100252008ABB089527B381E090E002C0880F991FFE
:100262006A95E2F7822B87BB089524B381E090E080
:1002720002C0880F991F6A95E2F7822B84BB08950A
:1002820021B381E090E002C0880F991F6A95E2F7DE
:10029200822B81BB089581309105B1F01CF4892B2A
:1002A20039F0089582309105D9F0039729F1089524
:1002B2002AB381E090E002C0880F991F6A95E2F7A5
:1002C200809582238ABB089527B381E090E002C023
:1002D200880F991F6A95E2F78095822387BB08955C
:1002E20024B381E090E002C0880F991F6A95E2F77B
:1002F2008095822384BB089521B381E090E002C0FF
:10030200880F991F6A95E2F78095822381BB089531
:10031200452BC9F181309105A9F01CF4892B39F0E4
:10032200089582309105C9F0039711F108952BB316
:1003320081E090E002C0880F991F6A95E2F7822B54
:100342008BBB089528B381E090E002C0880F991F0B
:100352006A95E2F7822B88BB089525B381E090E08D
:1003620002C0880F991F6A95E2F7822B85BB089518
:1003720022B381E090E002C0880F991F6A95E2F7EC
:10038200822B82BB089581309105B1F01CF4892B38
:1003920039F0089582309105D9F0039729F1089533
:1003A2002BB381E090E002C0880F991F6A95E2F7B3
:1003B200809582238BBB089528B381E090E002C030
:1003C200880F991F6A95E2F78095822388BB08956A
:1003D20025B381E090E002C0880F991F6A95E2F789
:1003E2008095822385BB089522B381E090E002C00C
:1003F200880F991F6A95E2F78095822382BB089540
:100402008AB3806F8ABB41E050E060E070E081E037
:1004120090E00E94110141E050E061E070E081E073
:1004220090E00E94110141E050E062E070E081E062
:1004320090E00E94110140E050E061E070E081E054
:1004420090E00E94890182E00E94640288E20E9498
:1004520064028CE00E94640286E00E9464020E94B0
:10046200050383ED90E30197F1F700C000000895C2
:10047200CF93C82F41E050E060E070E081E090E06F
:100482000E9489018BB38F709C2F907F892B8BBB2D
:100492000E94A90287E893E10197F1F700C00000EA
:1004A2008BB3282F2F7030E1C39FC0011124822B00
:1004B2008BBB0E94A90287E893E10197F1F700C084
:0604C2000000CF91089537
:1004C800CF93C82F40E050E060E070E081E090E01A
:1004D8000E9489018BB38F709C2F907F892B8BBBD7
:1004E8000E94A90287E893E10197F1F700C0000094
:1004F8008BB3282F2F7030E1C39FC0011124822BAA
:100508008BBB0E94A90287E893E10197F1F700C02D
:060518000000CF910895E0
:10051E00CF93DF93EC0183B78F7C83BF41E050E034
:10052E0063E070E081E090E00E94110183B7C29514
:10053E00D295D07FDC27C07FDC27C82BC3BFDF91CD
:04054E00CF910895AC
:1005520041E050E062E070E081E090E00E948901B9
:1005620085E88A95F1F7000040E050E062E070E033
:0A05720081E090E00E9489010895E5
:10057C00CF93DF93EC018881882331F021960E9480
:0E058C00390289918111FBCFDF91CF91089543
:10059A0093B7977B93BF93B7987F93BF93B7892BF2
:0A05AA0083BF83B7682B63BF089579
:1005B400992777FD05C005900D920197E1F70895FD
:0A05C40001900D920197E1F70895F0
:1005CE0015BA8FEF84BB8C9A8D9A949A959A08954A
:0E05DE00349BFECF84B125B190E0922B08959E
:0A05EC008FB9779BFECF8FB1089501
:0A05F600AC9AAE9AAB98AD98089548
:0A060000AB9AAD9AAC98AE9808953D
:08060A0081E00E9464020895E2
:08061200BE9ABC986E9A08958F
:04061A000C9400003C
:04061E0015BA08956C
:040622008CBF0895EC
:00000001FF
